{
  "contractName": "Exchange",
  "abi": [
    {
      "anonymous": false,
      "inputs": [
        {
          "indexed": false,
          "internalType": "address",
          "name": "account",
          "type": "address"
        },
        {
          "indexed": false,
          "internalType": "address",
          "name": "token",
          "type": "address"
        },
        {
          "indexed": false,
          "internalType": "uint256",
          "name": "amount",
          "type": "uint256"
        },
        {
          "indexed": false,
          "internalType": "uint256",
          "name": "rate",
          "type": "uint256"
        }
      ],
      "name": "TokensPurchased",
      "type": "event"
    },
    {
      "anonymous": false,
      "inputs": [
        {
          "indexed": false,
          "internalType": "address",
          "name": "account",
          "type": "address"
        },
        {
          "indexed": false,
          "internalType": "address",
          "name": "token",
          "type": "address"
        },
        {
          "indexed": false,
          "internalType": "uint256",
          "name": "amount",
          "type": "uint256"
        },
        {
          "indexed": false,
          "internalType": "uint256",
          "name": "rate",
          "type": "uint256"
        }
      ],
      "name": "TokensSold",
      "type": "event"
    },
    {
      "constant": true,
      "inputs": [],
      "name": "name",
      "outputs": [
        {
          "internalType": "string",
          "name": "",
          "type": "string"
        }
      ],
      "payable": false,
      "stateMutability": "view",
      "type": "function"
    },
    {
      "constant": true,
      "inputs": [],
      "name": "rate",
      "outputs": [
        {
          "internalType": "uint256",
          "name": "",
          "type": "uint256"
        }
      ],
      "payable": false,
      "stateMutability": "view",
      "type": "function"
    },
    {
      "constant": true,
      "inputs": [],
      "name": "token",
      "outputs": [
        {
          "internalType": "contract Token",
          "name": "",
          "type": "address"
        }
      ],
      "payable": false,
      "stateMutability": "view",
      "type": "function"
    },
    {
      "constant": false,
      "inputs": [],
      "name": "buyTokens",
      "outputs": [],
      "payable": true,
      "stateMutability": "payable",
      "type": "function"
    },
    {
      "constant": false,
      "inputs": [
        {
          "internalType": "uint256",
          "name": "_amount",
          "type": "uint256"
        }
      ],
      "name": "sellTokens",
      "outputs": [],
      "payable": false,
      "stateMutability": "nonpayable",
      "type": "function"
    }
  ],
  "bytecode": "0x60806040526040518060400160405280600f81526020017f53746f6e6b732045786368616e676500000000000000000000000000000000008152506000908051906020019061004f929190610067565b50606460025534801561006157600080fd5b5061010c565b828054600181600116156101000203166002900490600052602060002090601f016020900481019282601f106100a857805160ff19168380011785556100d6565b828001600101855582156100d6579182015b828111156100d55782518255916020019190600101906100ba565b5b5090506100e391906100e7565b5090565b61010991905b808211156101055760008160009055506001016100ed565b5090565b90565b6108798061011b6000396000f3fe60806040526004361061004a5760003560e01c806306fdde031461004f5780632c4e722e146100df5780636c11bcd31461010a578063d0febe4c14610145578063fc0c546a1461014f575b600080fd5b34801561005b57600080fd5b506100646101a6565b6040518080602001828103825283818151815260200191508051906020019080838360005b838110156100a4578082015181840152602081019050610089565b50505050905090810190601f1680156100d15780820380516001836020036101000a031916815260200191505b509250505060405180910390f35b3480156100eb57600080fd5b506100f4610244565b6040518082815260200191505060405180910390f35b34801561011657600080fd5b506101436004803603602081101561012d57600080fd5b810190808035906020019092919050505061024a565b005b61014d61057c565b005b34801561015b57600080fd5b5061016461081e565b604051808273ffffffffffffffffffffffffffffffffffffffff1673ffffffffffffffffffffffffffffffffffffffff16815260200191505060405180910390f35b60008054600181600116156101000203166002900480601f01602080910402602001604051908101604052809291908181526020018280546001816001161561010002031660029004801561023c5780601f106102115761010080835404028352916020019161023c565b820191906000526020600020905b81548152906001019060200180831161021f57829003601f168201915b505050505081565b60025481565b80600160009054906101000a900473ffffffffffffffffffffffffffffffffffffffff1673ffffffffffffffffffffffffffffffffffffffff166370a08231336040518263ffffffff1660e01b8152600401808273ffffffffffffffffffffffffffffffffffffffff1673ffffffffffffffffffffffffffffffffffffffff16815260200191505060206040518083038186803b1580156102ea57600080fd5b505afa1580156102fe573d6000803e3d6000fd5b505050506040513d602081101561031457600080fd5b8101908080519060200190929190505050101561033057600080fd5b6000600254828161033d57fe5b0490508047101561034d57600080fd5b600160009054906101000a900473ffffffffffffffffffffffffffffffffffffffff1673ffffffffffffffffffffffffffffffffffffffff166323b872dd3330856040518463ffffffff1660e01b8152600401808473ffffffffffffffffffffffffffffffffffffffff1673ffffffffffffffffffffffffffffffffffffffff1681526020018373ffffffffffffffffffffffffffffffffffffffff1673ffffffffffffffffffffffffffffffffffffffff1681526020018281526020019350505050602060405180830381600087803b15801561042a57600080fd5b505af115801561043e573d6000803e3d6000fd5b505050506040513d602081101561045457600080fd5b8101908080519060200190929190505050503373ffffffffffffffffffffffffffffffffffffffff166108fc829081150290604051600060405180830381858888f193505050501580156104ac573d6000803e3d6000fd5b507f697c42d55a5e1fed3f464ec6f38b32546a0bd368dc8068b065c67566d73f329033600160009054906101000a900473ffffffffffffffffffffffffffffffffffffffff1684600254604051808573ffffffffffffffffffffffffffffffffffffffff1673ffffffffffffffffffffffffffffffffffffffff1681526020018473ffffffffffffffffffffffffffffffffffffffff1673ffffffffffffffffffffffffffffffffffffffff16815260200183815260200182815260200194505050505060405180910390a15050565b60006002543402905080600160009054906101000a900473ffffffffffffffffffffffffffffffffffffffff1673ffffffffffffffffffffffffffffffffffffffff166370a08231306040518263ffffffff1660e01b8152600401808273ffffffffffffffffffffffffffffffffffffffff1673ffffffffffffffffffffffffffffffffffffffff16815260200191505060206040518083038186803b15801561062557600080fd5b505afa158015610639573d6000803e3d6000fd5b505050506040513d602081101561064f57600080fd5b8101908080519060200190929190505050101561066b57600080fd5b600160009054906101000a900473ffffffffffffffffffffffffffffffffffffffff1673ffffffffffffffffffffffffffffffffffffffff1663a9059cbb33836040518363ffffffff1660e01b8152600401808373ffffffffffffffffffffffffffffffffffffffff1673ffffffffffffffffffffffffffffffffffffffff16815260200182815260200192505050602060405180830381600087803b15801561071457600080fd5b505af1158015610728573d6000803e3d6000fd5b505050506040513d602081101561073e57600080fd5b8101908080519060200190929190505050507f6faf93231a456e552dbc9961f58d9713ee4f2e69d15f1975b050ef0911053a7b33600160009054906101000a900473ffffffffffffffffffffffffffffffffffffffff1683600254604051808573ffffffffffffffffffffffffffffffffffffffff1673ffffffffffffffffffffffffffffffffffffffff1681526020018473ffffffffffffffffffffffffffffffffffffffff1673ffffffffffffffffffffffffffffffffffffffff16815260200183815260200182815260200194505050505060405180910390a150565b600160009054906101000a900473ffffffffffffffffffffffffffffffffffffffff168156fea265627a7a72315820871ba081e161127088fdae76278e85928ed8ff1bdee782a0748823d101bc3f7b64736f6c63430005100032",
  "source": "pragma solidity ^0.5.0; \r\nimport \"./Token.sol\";\r\n//ERC20PAIR\r\ncontract Exchange {\r\n    string public name = \"Stonks Exchange\";\r\n    //variable that represent token sc \r\n    Token public token;\r\n    uint public rate = 100;\r\n    \r\n    event TokensPurchased(\r\n        address account,\r\n        address token,\r\n        uint amount,\r\n        uint rate\r\n    );\r\n\r\n    event TokensSold(\r\n        address account,\r\n        address token,\r\n        uint amount,\r\n        uint rate\r\n    );\r\n    \r\n\r\n    function buyTokens() public payable{\r\n        //Amount of Etherum * redemption rate\r\n        //Calculate the number of tokens to buy\r\n        uint tokenAmount = msg.value * rate;\r\n\r\n        //whatever passing into require is true keep execute, and another way around\r\n        //Making sure user has enough balance to purchase\r\n        require(token.balanceOf(address(this)) >= tokenAmount);\r\n\r\n        token.transfer(msg.sender, tokenAmount);\r\n\r\n        //Emit an event\r\n        emit TokensPurchased(msg.sender, address(token), tokenAmount, rate);\r\n    }\r\n\r\n    function sellTokens(uint _amount) public {\r\n        //User can't sell more tokens that they have\r\n        require(token.balanceOf(msg.sender) >= _amount);\r\n\r\n        //calculate the amount of Ether to redeem\r\n        uint etherAmount = _amount / rate;\r\n\r\n        //Require that ethswap has enough to redeem\r\n        require(address(this).balance >= etherAmount);\r\n\r\n        //perform sale\r\n        token.transferFrom(msg.sender, address(this), _amount);\r\n        msg.sender.transfer(etherAmount);\r\n\r\n        //Emit an event\r\n        emit TokensSold(msg.sender,address(token),_amount,rate);\r\n    }\r\n}\r\n",
  "sourcePath": "C:\\Users\\user\\eth_swap\\src\\contracts\\Exchange.sol",
  "compiler": {
    "name": "solc",
    "version": "0.5.16+commit.9c3226ce.Emscripten.clang"
  },
  "schemaVersion": "3.4.4",
  "updatedAt": "2022-04-12T07:26:03.188Z",
  "networkType": "ethereum",
  "devdoc": {
    "methods": {}
  },
  "userdoc": {
    "methods": {}
  }
}